{
  "contractName": "SecureMessage",
  "abi": [
    {
      "anonymous": false,
      "inputs": [
        {
          "indexed": true,
          "internalType": "address",
          "name": "sender",
          "type": "address"
        },
        {
          "indexed": true,
          "internalType": "address",
          "name": "receiver",
          "type": "address"
        },
        {
          "indexed": false,
          "internalType": "string",
          "name": "contentHash",
          "type": "string"
        },
        {
          "indexed": false,
          "internalType": "string",
          "name": "description",
          "type": "string"
        },
        {
          "indexed": false,
          "internalType": "uint256",
          "name": "timestamp",
          "type": "uint256"
        },
        {
          "indexed": false,
          "internalType": "string",
          "name": "fileType",
          "type": "string"
        },
        {
          "indexed": false,
          "internalType": "string",
          "name": "encryptionKey",
          "type": "string"
        }
      ],
      "name": "MessageUploaded",
      "type": "event"
    },
    {
      "inputs": [
        {
          "internalType": "string",
          "name": "",
          "type": "string"
        }
      ],
      "name": "messages",
      "outputs": [
        {
          "internalType": "address",
          "name": "sender",
          "type": "address"
        },
        {
          "internalType": "address",
          "name": "receiver",
          "type": "address"
        },
        {
          "internalType": "string",
          "name": "contentHash",
          "type": "string"
        },
        {
          "internalType": "string",
          "name": "description",
          "type": "string"
        },
        {
          "internalType": "uint256",
          "name": "timestamp",
          "type": "uint256"
        },
        {
          "internalType": "string",
          "name": "fileType",
          "type": "string"
        },
        {
          "internalType": "string",
          "name": "encryptionKey",
          "type": "string"
        }
      ],
      "stateMutability": "view",
      "type": "function",
      "constant": true
    },
    {
      "inputs": [
        {
          "internalType": "address",
          "name": "",
          "type": "address"
        },
        {
          "internalType": "uint256",
          "name": "",
          "type": "uint256"
        }
      ],
      "name": "receivedHashes",
      "outputs": [
        {
          "internalType": "string",
          "name": "",
          "type": "string"
        }
      ],
      "stateMutability": "view",
      "type": "function",
      "constant": true
    },
    {
      "inputs": [
        {
          "internalType": "string",
          "name": "contentHash",
          "type": "string"
        },
        {
          "internalType": "string",
          "name": "description",
          "type": "string"
        },
        {
          "internalType": "string",
          "name": "fileType",
          "type": "string"
        },
        {
          "internalType": "string",
          "name": "encryptionKey",
          "type": "string"
        },
        {
          "internalType": "address",
          "name": "receiver",
          "type": "address"
        }
      ],
      "name": "uploadMessage",
      "outputs": [],
      "stateMutability": "nonpayable",
      "type": "function"
    },
    {
      "inputs": [
        {
          "internalType": "string",
          "name": "contentHash",
          "type": "string"
        }
      ],
      "name": "getMessage",
      "outputs": [
        {
          "internalType": "address",
          "name": "sender",
          "type": "address"
        },
        {
          "internalType": "address",
          "name": "receiver",
          "type": "address"
        },
        {
          "internalType": "string",
          "name": "contentHashOut",
          "type": "string"
        },
        {
          "internalType": "string",
          "name": "description",
          "type": "string"
        },
        {
          "internalType": "uint256",
          "name": "timestamp",
          "type": "uint256"
        },
        {
          "internalType": "string",
          "name": "fileType",
          "type": "string"
        },
        {
          "internalType": "string",
          "name": "encryptionKey",
          "type": "string"
        }
      ],
      "stateMutability": "view",
      "type": "function",
      "constant": true
    },
    {
      "inputs": [
        {
          "internalType": "address",
          "name": "user",
          "type": "address"
        }
      ],
      "name": "getReceivedHashes",
      "outputs": [
        {
          "internalType": "string[]",
          "name": "",
          "type": "string[]"
        }
      ],
      "stateMutability": "view",
      "type": "function",
      "constant": true
    }
  ],
  "bytecode": "0x608060405234801561000f575f80fd5b506117118061001d5f395ff3fe608060405234801561000f575f80fd5b5060043610610055575f3560e01c806304dae209146100595780630cc4e8d814610089578063385c828c146100bf5780637d8431fa146100f5578063eb97549714610125575b5f80fd5b610073600480360381019061006e9190610cb3565b610141565b6040516100809190610e23565b60405180910390f35b6100a3600480360381019061009e9190610f6f565b610252565b6040516100b69796959493929190611025565b60405180910390f35b6100d960048036038101906100d49190610f6f565b6105fb565b6040516100ec9796959493929190611025565b60405180910390f35b61010f600480360381019061010a91906110d8565b6108a6565b60405161011c9190611116565b60405180910390f35b61013f600480360381019061013a9190611136565b610957565b005b606060015f8373ffffffffffffffffffffffffffffffffffffffff1673ffffffffffffffffffffffffffffffffffffffff1681526020019081526020015f20805480602002602001604051908101604052809291908181526020015f905b82821015610247578382905f5260205f200180546101bc9061124a565b80601f01602080910402602001604051908101604052809291908181526020018280546101e89061124a565b80156102335780601f1061020a57610100808354040283529160200191610233565b820191905f5260205f20905b81548152906001019060200180831161021657829003601f168201915b50505050508152602001906001019061019f565b505050509050919050565b5f806060805f6060805f808960405161026b91906112b4565b90815260200160405180910390206040518060e00160405290815f82015f9054906101000a900473ffffffffffffffffffffffffffffffffffffffff1673ffffffffffffffffffffffffffffffffffffffff1673ffffffffffffffffffffffffffffffffffffffff168152602001600182015f9054906101000a900473ffffffffffffffffffffffffffffffffffffffff1673ffffffffffffffffffffffffffffffffffffffff1673ffffffffffffffffffffffffffffffffffffffff16815260200160028201805461033d9061124a565b80601f01602080910402602001604051908101604052809291908181526020018280546103699061124a565b80156103b45780601f1061038b576101008083540402835291602001916103b4565b820191905f5260205f20905b81548152906001019060200180831161039757829003601f168201915b505050505081526020016003820180546103cd9061124a565b80601f01602080910402602001604051908101604052809291908181526020018280546103f99061124a565b80156104445780601f1061041b57610100808354040283529160200191610444565b820191905f5260205f20905b81548152906001019060200180831161042757829003601f168201915b50505050508152602001600482015481526020016005820180546104679061124a565b80601f01602080910402602001604051908101604052809291908181526020018280546104939061124a565b80156104de5780601f106104b5576101008083540402835291602001916104de565b820191905f5260205f20905b8154815290600101906020018083116104c157829003601f168201915b505050505081526020016006820180546104f79061124a565b80601f01602080910402602001604051908101604052809291908181526020018280546105239061124a565b801561056e5780601f106105455761010080835404028352916020019161056e565b820191905f5260205f20905b81548152906001019060200180831161055157829003601f168201915b50505050508152505090505f8160800151036105bf576040517f08c379a00000000000000000000000000000000000000000000000000000000081526004016105b690611314565b60405180910390fd5b805f015181602001518260400151836060015184608001518560a001518660c00151975097509750975097509750975050919395979092949650565b5f818051602081018201805184825260208301602085012081835280955050505050505f91509050805f015f9054906101000a900473ffffffffffffffffffffffffffffffffffffffff1690806001015f9054906101000a900473ffffffffffffffffffffffffffffffffffffffff169080600201805461067b9061124a565b80601f01602080910402602001604051908101604052809291908181526020018280546106a79061124a565b80156106f25780601f106106c9576101008083540402835291602001916106f2565b820191905f5260205f20905b8154815290600101906020018083116106d557829003601f168201915b5050505050908060030180546107079061124a565b80601f01602080910402602001604051908101604052809291908181526020018280546107339061124a565b801561077e5780601f106107555761010080835404028352916020019161077e565b820191905f5260205f20905b81548152906001019060200180831161076157829003601f168201915b5050505050908060040154908060050180546107999061124a565b80601f01602080910402602001604051908101604052809291908181526020018280546107c59061124a565b80156108105780601f106107e757610100808354040283529160200191610810565b820191905f5260205f20905b8154815290600101906020018083116107f357829003601f168201915b5050505050908060060180546108259061124a565b80601f01602080910402602001604051908101604052809291908181526020018280546108519061124a565b801561089c5780601f106108735761010080835404028352916020019161089c565b820191905f5260205f20905b81548152906001019060200180831161087f57829003601f168201915b5050505050905087565b6001602052815f5260405f2081815481106108bf575f80fd5b905f5260205f20015f915091505080546108d89061124a565b80601f01602080910402602001604051908101604052809291908181526020018280546109049061124a565b801561094f5780601f106109265761010080835404028352916020019161094f565b820191905f5260205f20905b81548152906001019060200180831161093257829003601f168201915b505050505081565b5f85511161099a576040517f08c379a00000000000000000000000000000000000000000000000000000000081526004016109919061137c565b60405180910390fd5b5f80866040516109aa91906112b4565b908152602001604051809103902060040154146109fc576040517f08c379a00000000000000000000000000000000000000000000000000000000081526004016109f3906113e4565b60405180910390fd5b6040518060e001604052803373ffffffffffffffffffffffffffffffffffffffff1681526020018273ffffffffffffffffffffffffffffffffffffffff168152602001868152602001858152602001428152602001848152602001838152505f86604051610a6a91906112b4565b90815260200160405180910390205f820151815f015f6101000a81548173ffffffffffffffffffffffffffffffffffffffff021916908373ffffffffffffffffffffffffffffffffffffffff1602179055506020820151816001015f6101000a81548173ffffffffffffffffffffffffffffffffffffffff021916908373ffffffffffffffffffffffffffffffffffffffff1602179055506040820151816002019081610b17919061159f565b506060820151816003019081610b2d919061159f565b506080820151816004015560a0820151816005019081610b4d919061159f565b5060c0820151816006019081610b63919061159f565b5090505060015f8273ffffffffffffffffffffffffffffffffffffffff1673ffffffffffffffffffffffffffffffffffffffff1681526020019081526020015f2085908060018154018082558091505060019003905f5260205f20015f909190919091509081610bd3919061159f565b508073ffffffffffffffffffffffffffffffffffffffff163373ffffffffffffffffffffffffffffffffffffffff167fbab65bc73424213fe27439c226ec14934554b2e39aa4606a43217ba947ddd63c8787428888604051610c3995949392919061166e565b60405180910390a35050505050565b5f604051905090565b5f80fd5b5f80fd5b5f73ffffffffffffffffffffffffffffffffffffffff82169050919050565b5f610c8282610c59565b9050919050565b610c9281610c78565b8114610c9c575f80fd5b50565b5f81359050610cad81610c89565b92915050565b5f60208284031215610cc857610cc7610c51565b5b5f610cd584828501610c9f565b91505092915050565b5f81519050919050565b5f82825260208201905092915050565b5f819050602082019050919050565b5f81519050919050565b5f82825260208201905092915050565b5f5b83811015610d3e578082015181840152602081019050610d23565b5f8484015250505050565b5f601f19601f8301169050919050565b5f610d6382610d07565b610d6d8185610d11565b9350610d7d818560208601610d21565b610d8681610d49565b840191505092915050565b5f610d9c8383610d59565b905092915050565b5f602082019050919050565b5f610dba82610cde565b610dc48185610ce8565b935083602082028501610dd685610cf8565b805f5b85811015610e115784840389528151610df28582610d91565b9450610dfd83610da4565b925060208a01995050600181019050610dd9565b50829750879550505050505092915050565b5f6020820190508181035f830152610e3b8184610db0565b905092915050565b5f80fd5b5f80fd5b7f4e487b71000000000000000000000000000000000000000000000000000000005f52604160045260245ffd5b610e8182610d49565b810181811067ffffffffffffffff82111715610ea057610e9f610e4b565b5b80604052505050565b5f610eb2610c48565b9050610ebe8282610e78565b919050565b5f67ffffffffffffffff821115610edd57610edc610e4b565b5b610ee682610d49565b9050602081019050919050565b828183375f83830152505050565b5f610f13610f0e84610ec3565b610ea9565b905082815260208101848484011115610f2f57610f2e610e47565b5b610f3a848285610ef3565b509392505050565b5f82601f830112610f5657610f55610e43565b5b8135610f66848260208601610f01565b91505092915050565b5f60208284031215610f8457610f83610c51565b5b5f82013567ffffffffffffffff811115610fa157610fa0610c55565b5b610fad84828501610f42565b91505092915050565b610fbf81610c78565b82525050565b5f82825260208201905092915050565b5f610fdf82610d07565b610fe98185610fc5565b9350610ff9818560208601610d21565b61100281610d49565b840191505092915050565b5f819050919050565b61101f8161100d565b82525050565b5f60e0820190506110385f83018a610fb6565b6110456020830189610fb6565b81810360408301526110578188610fd5565b9050818103606083015261106b8187610fd5565b905061107a6080830186611016565b81810360a083015261108c8185610fd5565b905081810360c08301526110a08184610fd5565b905098975050505050505050565b6110b78161100d565b81146110c1575f80fd5b50565b5f813590506110d2816110ae565b92915050565b5f80604083850312156110ee576110ed610c51565b5b5f6110fb85828601610c9f565b925050602061110c858286016110c4565b9150509250929050565b5f6020820190508181035f83015261112e8184610fd5565b905092915050565b5f805f805f60a0868803121561114f5761114e610c51565b5b5f86013567ffffffffffffffff81111561116c5761116b610c55565b5b61117888828901610f42565b955050602086013567ffffffffffffffff81111561119957611198610c55565b5b6111a588828901610f42565b945050604086013567ffffffffffffffff8111156111c6576111c5610c55565b5b6111d288828901610f42565b935050606086013567ffffffffffffffff8111156111f3576111f2610c55565b5b6111ff88828901610f42565b925050608061121088828901610c9f565b9150509295509295909350565b7f4e487b71000000000000000000000000000000000000000000000000000000005f52602260045260245ffd5b5f600282049050600182168061126157607f821691505b6020821081036112745761127361121d565b5b50919050565b5f81905092915050565b5f61128e82610d07565b611298818561127a565b93506112a8818560208601610d21565b80840191505092915050565b5f6112bf8284611284565b915081905092915050565b7f4d657373616765206e6f7420666f756e640000000000000000000000000000005f82015250565b5f6112fe601183610fc5565b9150611309826112ca565b602082019050919050565b5f6020820190508181035f83015261132b816112f2565b9050919050565b7f436f6e74656e74206861736820697320726571756972656400000000000000005f82015250565b5f611366601883610fc5565b915061137182611332565b602082019050919050565b5f6020820190508181035f8301526113938161135a565b9050919050565b7f4861736820616c726561647920657869737473000000000000000000000000005f82015250565b5f6113ce601383610fc5565b91506113d98261139a565b602082019050919050565b5f6020820190508181035f8301526113fb816113c2565b9050919050565b5f819050815f5260205f209050919050565b5f6020601f8301049050919050565b5f82821b905092915050565b5f6008830261145e7fffffffffffffffffffffffffffffffffffffffffffffffffffffffffffffffff82611423565b6114688683611423565b95508019841693508086168417925050509392505050565b5f819050919050565b5f6114a361149e6114998461100d565b611480565b61100d565b9050919050565b5f819050919050565b6114bc83611489565b6114d06114c8826114aa565b84845461142f565b825550505050565b5f90565b6114e46114d8565b6114ef8184846114b3565b505050565b5b81811015611512576115075f826114dc565b6001810190506114f5565b5050565b601f8211156115575761152881611402565b61153184611414565b81016020851015611540578190505b61155461154c85611414565b8301826114f4565b50505b505050565b5f82821c905092915050565b5f6115775f198460080261155c565b1980831691505092915050565b5f61158f8383611568565b9150826002028217905092915050565b6115a882610d07565b67ffffffffffffffff8111156115c1576115c0610e4b565b5b6115cb825461124a565b6115d6828285611516565b5f60209050601f831160018114611607575f84156115f5578287015190505b6115ff8582611584565b865550611666565b601f19841661161586611402565b5f5b8281101561163c57848901518255600182019150602085019450602081019050611617565b868310156116595784890151611655601f891682611568565b8355505b6001600288020188555050505b505050505050565b5f60a0820190508181035f8301526116868188610fd5565b9050818103602083015261169a8187610fd5565b90506116a96040830186611016565b81810360608301526116bb8185610fd5565b905081810360808301526116cf8184610fd5565b9050969550505050505056fea2646970667358221220ec70d1a55e717fdffd3ab797694b82205899de00ecf14168279a11e905fceff664736f6c63430008150033",
  "immutableReferences": {},
  "source": "// SPDX-License-Identifier: MIT\r\npragma solidity ^0.8.21;\r\n\r\ncontract SecureMessage {\r\n    struct Message {\r\n        address sender;\r\n        address receiver;\r\n        string contentHash;\r\n        string description;\r\n        uint timestamp;\r\n        string fileType;\r\n        string encryptionKey;\r\n    }\r\n\r\n    // Mapping from hash to full message struct\r\n    mapping(string => Message) public messages;\r\n\r\n    // NEW: Mapping to track all hashes received by a user\r\n    mapping(address => string[]) public receivedHashes;\r\n\r\n    // Event for frontend\r\n    event MessageUploaded(\r\n        address indexed sender,\r\n        address indexed receiver,\r\n        string contentHash,\r\n        string description,\r\n        uint timestamp,\r\n        string fileType,\r\n        string encryptionKey\r\n    );\r\n\r\n    function uploadMessage(\r\n        string memory contentHash,\r\n        string memory description,\r\n        string memory fileType,\r\n        string memory encryptionKey,\r\n        address receiver\r\n    ) public {\r\n        require(bytes(contentHash).length > 0, \"Content hash is required\");\r\n        require(messages[contentHash].timestamp == 0, \"Hash already exists\");\r\n\r\n        messages[contentHash] = Message({\r\n            sender: msg.sender,\r\n            receiver: receiver,\r\n            contentHash: contentHash,\r\n            description: description,\r\n            timestamp: block.timestamp,\r\n            fileType: fileType,\r\n            encryptionKey: encryptionKey\r\n        });\r\n\r\n        //  Track this message under the receiver\r\n        receivedHashes[receiver].push(contentHash);\r\n\r\n        emit MessageUploaded(\r\n            msg.sender,\r\n            receiver,\r\n            contentHash,\r\n            description,\r\n            block.timestamp,\r\n            fileType,\r\n            encryptionKey\r\n        );\r\n    }\r\n\r\n    function getMessage(string memory contentHash)\r\n        public\r\n        view\r\n        returns (\r\n            address sender,\r\n            address receiver,\r\n            string memory contentHashOut,\r\n            string memory description,\r\n            uint timestamp,\r\n            string memory fileType,\r\n            string memory encryptionKey\r\n        )\r\n    {\r\n        Message memory msgStruct = messages[contentHash];\r\n        require(msgStruct.timestamp != 0, \"Message not found\");\r\n\r\n        return (\r\n            msgStruct.sender,\r\n            msgStruct.receiver,\r\n            msgStruct.contentHash,\r\n            msgStruct.description,\r\n            msgStruct.timestamp,\r\n            msgStruct.fileType,\r\n            msgStruct.encryptionKey\r\n        );\r\n    }\r\n\r\n    //  NEW: Retrieve all hashes sent to a specific user\r\n    function getReceivedHashes(address user) public view returns (string[] memory) {\r\n        return receivedHashes[user];\r\n    }\r\n}\r\n",
  "sourcePath": "C:\\TruffleClean\\contracts\\SecureMessage.sol",
  "compiler": {
    "name": "solc",
    "version": "0.8.21+commit.d9974bed.Emscripten.clang"
  },
  "schemaVersion": "3.4.14",
  "updatedAt": "2025-07-22T08:16:11.397Z",
  "networkType": "ethereum",
  "devdoc": {
    "kind": "dev",
    "methods": {},
    "version": 1
  },
  "userdoc": {
    "kind": "user",
    "methods": {},
    "version": 1
  }
}